:020000040001F9
:10020000F82400201521010041810100E9200100AE
:10021000E9200100E9200100E9200100E9200100B6
:10022000000000000000000000000000D51A0100DE
:10023000E9200100000000007D1A0100512D01009D
:10024000551B0100551B0100551B0100551B0100EA
:10025000551B0100551B0100551B0100551B0100DA
:10026000551B0100551B0100551B0100551B0100CA
:10027000551B0100551B0100551B0100551B0100BA
:10028000551B0100551B0100551B0100551B0100AA
:10029000551B0100551B0100551B0100551B01009A
:1002A000551B0100551B0100551B0100551B01008A
:1002B000551B0100551B0100551B0100551B01007A
:1002C000551B0100551B0100551B0100551B01006A
:1002D000551B0100551B0100551B0100551B01005A
:1002E000551B0100551B0100551B0100551B01004A
:1002F000551B0100551B0100551B0100551B01003A
:10030000551B0100551B0100551B0100551B010029
:10031000551B0100551B0100551B0100551B010019
:10032000551B0100551B0100551B0100551B010009
:10033000551B0100551B0100551B0100551B0100F9
:10034000551B01000000000000000000000000003C
:10035000000000000000000000000000000000009D
:10036000000000000000000000000000000000008D
:10037000000000000000000000000000000000007D
:10038000000000000000000000000000000000006D
:10039000000000000000000000000000000000005D
:1003A000000000000000000000000000000000004D
:1003B000000000000000000000000000000000003D
:1003C000000000000000000000000000000000002D
:1003D000000000000000000000000000000000001D
:1003E000000000000000000000000000000000000D
:1003F00000000000000000000000000000000000FD
:10040000DEE61E284CBBCE8F025B00003C000000E5
:1004100000FE0000010000000002010000020100D7
:10042000FFFF02910000000000000000000000003B
:1004300000000000000000000000000053B94AB9AD
:10044000002908BF00281CBF4FF0FF314FF0FF30DC
:1004500000F00CB8ADF1080C6DE904CE00F024F802
:10046000DDF804E0DDE9022304B07047704700BF07
:100470002DE9E04F2746A046A146A246A346A44642
:10048000A2B02DEC000A84F3008825462646A44736
:10049000EFF3148515F0080F18BFB0EE400A3DECDD
:1004A000000A22B0BDE8E08F2DE9F04F07468C46E8
:1004B0000846099E15463C461946002B40F0C5806B
:1004C0008242B2FA82F746D94FB1C7F1200E00FA44
:1004D00007F3BD4024FA0EFEBC404EEA030C4FEA7F
:1004E00015481FFA85FE220CBCFBF8F908FB19C35E
:1004F00009FB0EFA42EA03439A4528D9EB1809F1A1
:10050000FF3004D29A4502D9A9F102002B44A3EB93
:100510000A03A4B2B3FBF8F208FB123302FB0EFE8F
:1005200044EA0344A64514D92C1902F1FF3303D23F
:10053000A64501D9931E2C44A4EB0E0443EA0040C7
:100540001EB1FC40002334607360BDE8F08F484664
:10055000DDE71346F0E702B9FFDE87BB831A01210E
:100560004FEA154EAAB2200CB3FBFEFC0EFB1C3367
:100570000CFB02F840EA0343984562D9EB180CF1F2
:10058000FF3004D2984502D9ACF102002B44A3EB12
:100590000803A4B2B3FBFEFC0EFB1C330CFB02F2FF
:1005A00044EA0344A2424ED92C190CF1FF3304D281
:1005B000A24202D9ACF102032C44A41ABEE7C7F14F
:1005C000200CBD4000FA07F320FA0CF84FEA154E54
:1005D00024FA0CFCBC404CEA0302ABB2B8FBFEFCB4
:1005E000110C0EFB1C800CFB03F941EA0040814515
:1005F00023D928180CF1FF3104D2814502D9ACF17E
:1006000002012844A0EB090092B2B0FBFEFC0EFBF5
:100610001C000CFB03F842EA004398450FD9EB1885
:100620000CF1FF3204D2984502D9ACF102022B44FE
:10063000A3EB080342EA014192E76146E2E7624622
:10064000F6E76046A3E76346B7E7834205D90EB1F4
:10065000C6E900700021084677E7B3FA83F181B953
:10066000834201D3BA420AD8BC1A60EB03030120CB
:100670009C46002E67D0C6E9004C002165E708467D
:10068000F7E7C1F1200C8B4002FA01F522FA0CF4D5
:1006900020FA0CFB27FA0CF28F401C4300FA01F3FE
:1006A0004FEA144913431FFA84FE1A0CBBFBF9F8F6
:1006B00009FB18BB08FB0EFA42EA0B4292453ED9F1
:1006C000A21808F1FF3004D2924502D9A8F1020025
:1006D0002244A2EB0A029BB2B2FBF9F809FB1822F2
:1006E00008FB0EFE43EA024296452AD9A21808F1F9
:1006F000FF3304D2964502D9A8F10203224443EA0B
:100700000040A2EB0E02A0FB05939A42CE4698460B
:1007100002D306D14F4504D20138B9EB050E63EB85
:10072000040886B1B7EB0E0362EB080707FA0CFC6E
:10073000CB40CF404CEA0303C6E900379DE7404673
:10074000C7E74346DBE73146FFE600000B680133AD
:100750000B60014B1B68184700000020014B18601C
:10076000704700BF0000002007B50B46002102467D
:100770000191034801A900F005F803B05DF804FBFE
:100780004D0701002DE9F04F8B4692461C4600258F
:1007900091B002909AF8000008B928465FE3252836
:1007A0000AF1010707D05946029B98470028C0F27A
:1007B0005683013512E2182200210AA807F01DFD18
:1007C0009AF80130252B78D00022104696469446A0
:1007D0001646394617F8013B2B2B00F09D8000F29E
:1007E0009480202B00F09B80232B00F09B802EB167
:1007F0009DF8306046F004068DF83060BCF1000FC3
:1008000005D09DF8306046F008068DF83060BEF1E6
:10081000000F05D09DF8306046F010068DF830606E
:1008200028B19DF8300040F020008DF830002AB14A
:100830009DF8302042F040028DF830209DF83020A5
:1008400002F04400442803D16FF386128DF8302063
:100850009DF830202A2B42F080028DF830207BD189
:100860009DF831204B1C42F001028DF831201A789E
:100870002E2A0CBF012100219DF8312061F3410295
:100880008DF8312074D15A782A2A6AD000210A269C
:100890000133184610F8012BA2F13007092F40F25E
:1008A0008E809DF830200E91C2F3400040EAD17155
:1008B00061F341028DF830205AE00AF102078DF809
:1008C00033309DF83130D90740F1498154F8049B09
:1008D000B9F1000F07DA9DF83020C9F1000942F0A4
:1008E00004028DF830205A0740F1428154F8048BFD
:1008F000B8F1000F80F241819DF831306FF3410370
:100900008DF831304FF0FF3837E12D2B0CD0302BE4
:100910007FF46DAF01225CE74FF0010C59E74FF017
:10092000010E56E7012054E7012652E733460CFB3F
:100930000202303A1E4616F8010BA0F13007092FCB
:10094000F4D9994293D09DF830100D92D20F62F3F2
:1009500041018DF830108AE70B4600224FF00A0C57
:10096000E8E79DF83120023342F004028DF831208F
:100970001F4617F8012B6C2A41D025D8682A2BD0A6
:100980006A2A46D04C2A4CD01F4617F8012B9DF8F6
:100990003130782A8DF8332000F2D980572A4DD88B
:1009A000412A03D0453A022A00F2D18004229DF860
:1009B000323062F302038DF8323001239EE006FBF1
:1009C00001210346303964E7742A26D07A2ADBD124
:1009D00006229DF831300DE05A78682A9DF83120C2
:1009E00006D1012161F3C6028DF831209F1CCCE7AE
:1009F0001346022262F3C6038DF83130C5E75A78F8
:100A00006C2A9DF8312001D10421EBE71346032223
:100A1000F0E705229DF83130ECE707229DF83130F0
:100A2000E8E7BDF8303023F4F04323F0020343F449
:100A3000804343F00203ADF83030A6E7A2F158013D
:100A4000202900F2848001A050F821F0110B010050
:100A50004F0B01004F0B01004F0B01004F0B01002A
:100A60004F0B01004F0B01004F0B01004F0B01001A
:100A7000AD0901004F0B0100110B0100D10A01006B
:100A8000AD090100AD090100AD0901004F0B0100E6
:100A9000D10A01004F0B01004F0B01004F0B010069
:100AA0004F0B0100190B0100110B0100350B010068
:100AB0004F0B01004F0B0100350B01004F0B0100E4
:100AC000110B01004F0B01004F0B0100110B010036
:100AD00001209DF8321003F0780360F30201402BEF
:100AE0008DF8321002BF9DF8301041F001018DF8F1
:100AF0003010632A31D1003B18BF01239DF830200C
:100B0000C2F340010B4363F341028DF83020D8E675
:100B100002209DF83210DEE703219DF8322003F019
:100B20007803A3F1400061F3020243428DF83220C2
:100B30004341E3E703219DF8322013F0780F61F37E
:100B4000020214BF012300238DF83220D6E79DF85E
:100B5000303043F001038DF830300023CEE79DF9AB
:100B60003020002AACBF4FF0FF39DDF83490BAE6F0
:100B70009B077FF5C7AEDDF838800023CDE90D3344
:100B80009DF832309DF8311003F00703012BC1F3BB
:100B9000C30138D1CB1E042B22D8DFE803F00309B0
:100BA0000921210054F8043BDA17CDE90A3206E0A6
:100BB000073424F00704F4E80223CDE90A239DF862
:100BC000303013F0030656D03B4652465946029841
:100BD00007F017FA0028C0F242810544BA46D9E569
:100BE00054F8043B01294FEAE372CDE90A3205D1FA
:100BF0009DF828300A9300230B93E0E70229DED109
:100C0000BDF92830D0E7022B23D1CB1E042B13D8FB
:100C1000DFE803F0030A0A12120000232268201DF5
:100C20000A920B930446CAE7E01D20F00700F0E8A3
:100C30000223CDE90A23F5E754F8043B01290A937E
:100C40004FF000030B93D3D00229B8D1BDF8283060
:100C5000D0E7042B09D1E31D23F0070303F10804B7
:100C6000D3E90023CDE90A23A9E7032B04BF54F8F5
:100C7000043B0A93A3E79DF833007828AED8622896
:100C800022D825283FF48FAD5828A7D1DDE90A01E5
:100C90000DF1260300930CAA04AB07F06CF9824611
:100CA000B8F1000F0DF126000CDB9DF83020A0EB11
:100CB0000A036FF3861298458DF8302002D9A8EB0D
:100CC00003030D9380463DE06338152886D801A2C2
:100CD00052F820F0550D0100B90D0100DD0B0100A7
:100CE000DD0B0100DD0B0100DD0B0100B90D010082
:100CF000DD0B0100DD0B0100DD0B0100DD0B010050
:100D0000130E0100E10D0100E50D0100DD0B0100F6
:100D1000DD0B01002D0D0100DD0B0100E10D0100D7
:100D2000DD0B0100DD0B0100E10D0100B8F1000F4A
:100D3000DDF828A00ADB4146504607F021FA0026DC
:100D40000AEB0008BAF1000F0CD147E7504607F054
:100D500010FAF4E700260A9B0DF1100A8DF8103006
:100D60000DF11108A8EB0A0306B101339DF83220FA
:100D7000D00668D5023352060D9948BF0E9A0B442F
:100D800048BF9B18B9F1000F76DD9DF83020A9EB24
:100D90000309C2F38003039353076DD4500661D552
:100DA00046B159463046029B9847002857DB039BC3
:100DB00001351E46302356E01E070FD413F01006EF
:100DC00018BF2026DDE90A23002BBFF65FAF524291
:100DD00063EB43032D26CDE90A2357E72B26F1E7E2
:100DE000002653E70A9840B30DF126030093002133
:100DF00004AB0CAA07F0BFF8BDF83230824603F00E
:100E0000EF0343F4F04343F010030026ADF8323013
:100E100046E70A9B07293FF6E1AEDFE801F00C0444
:100E2000060C08080C0C1D70D8E61D80D6E6EA17E3
:100E3000C3E90052D2E61D60D0E6DFF8C8A006463E
:100E40000AF105088EE7110748BF013393E71846FA
:100E500003935946029B98470028039B04DA11B07C
:100E6000BDE8F08F20234D444A46002AA5EB090136
:100E700009F1FF39EBDC0D4636B159463046029B8D
:100E800098470028EBDB01359DF83230D90601D4B4
:100E90001A0706D559463020029B98470028DEDB0A
:100EA00001359DF83230DB0607D559469DF83300F1
:100EB000029B98470028D2DB01350D9E2E44731B00
:100EC000002B16DC434652465946029807F099F823
:100ED0000028C4DB0544A944A9EB0503002B7FF7D8
:100EE0007DAE59462020029B98470028B7DB01358C
:100EF000F2E759463020029B98470028AFDB0135C6
:100F0000DDE700BF908E0100044608B54FF02002D7
:100F1000EFF3118382F31288BFF36F8F07F0B1FAFA
:100F2000204601F027F9034806F0FBFF00F0ECFC37
:100F3000FCE700BF968E01004FF02002EFF3118313
:100F400082F31288BFF36F8F0121044AC2F8401563
:100F500083F31188BFF36F8F002070470090035018
:100F600020B1034B800143F001031847704700BFD5
:100F7000A08A0100062807D10122044BC3F80025EE
:100F8000BFF34F8F20BFFDE7704700BF0040005008
:100F90002DE9F84305464FF02003EFF3118683F364
:100FA0001288BFF36F8F1D4802F068FD40B91C49DD
:100FB0001C488E2207F042F88E21194807F037F8B6
:100FC000164802F077FD184B1C689CB14FF00C09D5
:100FD000164FDFF85C80D4E90132002D08BF1346BC
:100FE0002BB198F8142009FB02F2B85C98472468EA
:100FF000002CF0D1094802F04FFD40B908490948DA
:10100000B92207F01BF8B921054807F010F886F35C
:101010001188BFF36F8FBDE8F88300BF380200204E
:10102000C38E0100F08E01003C020020440200202B
:10103000E40900200123420900F01F0003FA00F038
:10104000C043054B03EB8203D3E8EF2F0240C3E814
:10105000E12F0029F8D1704750020020012238B555
:10106000174B1C7D04F01F039A40D043154B6109B8
:1010700003EB8103D3E8EF1F01EA0005C3E8EC5F4F
:10108000BCF1000FF6D1114213D00F4B0F4D8BB1B5
:101090000C236343EA185178E85C06F0DDFF00207A
:1010A000FFF776FF0C235C4300232A192B51C2E97A
:1010B000013338BD83F31188BFF36F8FEFE700BFB3
:1010C000E40900205402002059800100440200205D
:1010D0002DE9F8432F4B07461C7D4FEA54184FEA81
:1010E00088082D4B4344D3E8AF3F04F01F0943FA6F
:1010F00009F313F0010F294E0AD10146204600F0F2
:1011000063F828B107C80C2303FB046383E80700D6
:101110000C236343F55CF2182DB92046FFF78AFFD4
:101120002846BDE8F8837B1C0FD04FF40045002112
:10113000D2F808C01A480023ECFB0501194AFFF752
:101140007DF90121381A03F0B9FF02F091FF012067
:10115000FFF71EFF012303FA09F9134B9844D8E85F
:10116000EF3F43EA0903C8E8E23F002AF7D10F4BFB
:1011700033B10C236343F2185178F05CFFF7FAFEA9
:10118000FFF76CFF2046FFF755FF03F095FB0120AA
:10119000C7E700BFE40900205002002044020020FD
:1011A0003F420F0040420F0054020020750F010023
:1011B000044B03EB8000D0E8AF0F003818BF0120CC
:1011C000704700BF580200202DE9F04F85B00F4650
:1011D00003A900F047F84FF0000B441EDFF87880B9
:1011E000DFF878A024B2631C04D10026304605B095
:1011F000BDE8F08F039A04EB440312F8230002EBDE
:101200008306FFF7D5FF054610BB4FF40049C446DF
:10121000294670685246E0FB09C15B466046FFF70D
:101220000DF9C44629460190B0685B46E0FB09C150
:1012300052466046FFF702F9094B1B68591C01D062
:10124000834205D97A1CD1D0019B1844B842CDD92C
:10125000013C24B2C7E700BF3F420F0040420F00ED
:101260000400002008B9024B0B600020704700BF4B
:10127000A88A0100F7B500281D4614BF4FF400539B
:101280004FF400438A42144632D803B0F0BD3A46C8
:1012900058B302F5E07746F82750571CBC42F6D108
:1012A0005C4315484B43009406F03BFE134B15F08E
:1012B000100F1349134808BF194606F032FE722179
:1012C000114806F02EFE77210F4806F02AFE7821FD
:1012D0000D4806F026FE6C210B4806F022FE0B4856
:1012E00003B0BDE8F04006F01CBE02F5C077D2E7BF
:1012F0000A46074ECCE700BF208F0100148F010083
:101300000B8F0100F29001003A8F01009A9B0100BF
:101310000030005008B543B2002B0CDB012200F076
:101320001F018A405B091049203341F82320BFF395
:101330004F8FBFF36F8F830003F1A04303F540533A
:101340003128D3F8002806D0002A07DA02F0030279
:10135000023A012A02D8054AC3F80028012106F002
:10136000C0FE002008BD00BF00E100E000010080D9
:1013700030B54FF40034204D85B029461F4806F0A3
:10138000D0FDD4F800121E4806F0CBFDD4F80412AC
:101390001C4806F0C6FD10220021684606F02DFF0D
:1013A000D4F8003268460093029500F041FF012016
:1013B00000F070FF002000F059FF002000F07EFFD9
:1013C0000121002000F098FF00F08CFFD4F80442C7
:1013D0000D4806F0A6FD0820FFF79CFF24F001044D
:1013E000BFF34F8FBFF36F8F640864002046214620
:1013F00022462346FFF73CF8000202003D8F010021
:10140000548F0100698F0100878F01002DE9F84397
:10141000624806F086FD002140F2171308460422B8
:10142000FFF728FF5E4D40F2071320220421002021
:10143000FFF720FF5B4806F074FDC5F30E045A4B1E
:10144000C4F500449C4208D258495948822206F00B
:10145000F5FD8221554806F0EAFDB4FA84F4554EB4
:10146000C4F11B04D6F80035E4B2D805C5F3C43581
:101470000AD551494E484FF4BD7206F0DFFD4FF4D6
:10148000BD714D4806F0D3FDD6F80435D9050AD50F
:101490004949474840F27B1206F0D0FD40F27B11EB
:1014A000454806F0C4FD434B4448C3F80055C3F813
:1014B0000445D3F80015D3F80425520106F031FD98
:1014C000384806F02EFD00F0B3F8014610B13C4854
:1014D00006F027FD3B4806F024FD40F217130422D6
:1014E00000210120FFF7C6FE324C40F207132022F4
:1014F00004210120FFF7BEFE2A4806F012FDD4F8B1
:101500008434DA070AD52C49294840F25B1206F0E8
:1015100095FD40F25B11284806F089FD00232A481A
:10152000C4F8803406F0FDFCD4F8C434DB070AD5D7
:1015300021491F484FF4B57206F080FD4FF4B57194
:101540001D4806F074FD00241A4B204D204FDFF893
:101550008480DFF88490C3F8C0446E792146002E61
:1015600014BF3B46434648462A6806F0DAFC66B19B
:101570001A48013406F0D5FC202C05F10805ECD101
:101580000848BDE8F84306F0CCBC2879FFF7C2FE56
:1015900008B11348EDE71348EBE700BFBD8F01002A
:1015A000E0FF01009A9B010020000000E18F010094
:1015B000F08E0100003000500290010034900100D4
:1015C0007A900100AA900100CC900100A88A010045
:1015D000188F0100B28F0100E8900100F590010022
:1015E000FC900100049101002DE9F043074600261C
:1015F00085B0DFF83490DFF8348001AD59F8044B42
:1016000098E807003C4485E807000C22294620465C
:1016100006F0BFFD00B91CB90136052EEED100243D
:10162000204605B0BDE8F083A88B0100708A010058
:1016300000220248114603F0BDBE00BF7402002024
:1016400070B50C461546064650B96FF01500BDE85A
:101650007040714672467346F4468EF3008C7447B0
:10166000002AF2D006F080FD0128EED0B4F5803FCC
:1016700016D32B19B3F5813F05D90B4A944209D9EA
:101680002D32934209D82A462146304606F0AAFD5B
:101690000020DCE7054A944202D9054A9342F2D978
:1016A0004FF0FF30D3E700BFFF01FF002F01FF0025
:1016B0003801FF0070B506460D46144606F054FD8D
:1016C00001280DD0204606F04FFD012808D0234602
:1016D0002A463146084803F09FFE2368AB4201D0FA
:1016E0006FF01500BDE87040714672467346F446CF
:1016F0008EF3008C744700BF7402002070B505465D
:1017000010460E46144606F02FFD01280AD16FF050
:101710001500BDE87040714672467346F4468EF37C
:10172000008C74472846FFF75FFF05463046FFF7F9
:101730005BFF0346CDB1296A0E4A914215D148B1EB
:101740000120196A0B4A914202D138B92070E0E7B2
:101750000028DCD0012300202370DAE75B696A6986
:101760009A4234BF00230123F5E7002BCFD000209D
:10177000E7E700BFFFFF0291014803F013BE00BF7F
:10178000BC8B010010B5044618B90D4B0D485B68C1
:101790009847616808290DD031F004030AD011F090
:1017A000020108D02146084802F046F800232360D1
:1017B0000023636010BD1422206806F01EFDF7E7C9
:1017C00060000020399201003404002008B5E8B11F
:1017D0004368042B0CD101220368D3E8EF1F0029D2
:1017E00003D1C3E8E02F0028F7D10BD1002008BDBA
:1017F00053B100684FF0FF324FF0FF3302F090F921
:101800000028F3D00348F2E70348F0E76FF4E04024
:10181000EDE700BFE98FFFFFEA8FFFFF08B5B0B12A
:101820004368042B0DD100220368D3E8EF1F012980
:1018300003D1C3E8E02F0028F7D1074808BF1046BE
:1018400008BD3BB1006802F03DFA0020F8E76FF4F4
:10185000E040F5E70148F3E7E98FFFFFEA8FFFFF7C
:1018600010B5044618B9164B16485B68984763686C
:10187000042B23D0082B21D0CBB92368BBB94FF060
:10188000FF324FF0FF3321460F4801F07BFF08B9CC
:1018900023681BB90A4B0D485B6898471422002146
:1018A000206806F0AAFC636843F0020363602068C6
:1018B00006F01DFF636843F00103636010BD00BFC5
:1018C0006000002039920100340400205F92010082
:1018D00008B5064940231422054806F0D5FEBDE8A8
:1018E00008400449044803F015BE00BF540400201A
:1018F00034040020D48B0100C48B01000149102264
:101900000A60704710ED00E072B6404080F3118825
:10191000BFF36F8FBFF34F8F30BF62B6BFF36F8FD0
:10192000704700BF37B505460C46C9B18B681048F3
:101930000093D1E90023452106F094FB636945211A
:101940000093D4E903230B4806F08CFB4521E269A0
:10195000094806F087FB4521A269084806F082FB8A
:101960002146284603B0BDE8304001F0ADBD00BFC0
:101970008C920100C0920100F492010008930100D2
:1019800043B2002B08DB012200F01F0002FA00F036
:10199000024A5B0942F82300704700BF00E100E003
:1019A000054B420953F82220012300F01F0003FADF
:1019B00000F01040704700BF00E100E038B54C1C5B
:1019C000072C054608D90D490D48572206F036FB6D
:1019D00057210A4806F02BFB6BB2002BACBF03F17A
:1019E0006043084B4FEA4414E4B2ABBF03F56143D4
:1019F00005F00F0583F800435C5538BD3B930100AB
:101A0000F08E010014ED00E030BFFFF7FDBF00BF16
:101A10000B4A08B50B4B22F07F029A60BFF34F8F41
:101A2000BFF36F8FD3F8882022F47002C3F88820A8
:101A300001F0C0FD03F0BEF900F060FB01F0FAFD1B
:101A40000002010000ED00E0094A0A4993680968B4
:101A50005867996708494B6843F080534B600023EF
:101A600083F31188BFF36F8F9368986F704700BF3F
:101A7000E4090020F08C010000ED00E013498A68C1
:101A80004FF030001044EFF3098C80E8F01F202065
:101A900080F31288BFF36F8F0D4F4FF00066CA6955
:101AA0008A603E60506F0023536780F3118802F113
:101AB000300090E8F01F8CF3098802F1000004B5B3
:101AC00006F045FBBDE8044070470000E409002033
:101AD00004ED00E01EF0040F0CBFEFF30880EFF3FD
:101AE0000980816911F8021C0229FFD001B506F0B6
:101AF000F0FA01BD42F8203C009B0B4942F81C3C27
:101B0000019B21F0010142F8183C029B42F8081C9D
:101B100042F8143C4FF0807342F8043C0023203A12
:101B200002654367704700BF637F0100084B986000
:101B3000436E83F30B88104681F30988002163B656
:101B400081F31188BFF36F8F0022002306F009FA9A
:101B5000E409002001B572B60B4A906900281EBF47
:101B60000021916106F0B4FD62B6EFF30580A0F1AB
:101B700010004FEAC0000549014409C99847BDE873
:101B80000140034908470000E40900200C880100D7
:101B9000951B0100044B9968D869884203D003491A
:101BA0004FF080520A607047E409002004ED00E025
:101BB00010B5244C2448452106F054FAD4F8E82006
:101BC000D4F8E430580603D54521204806F04AFAF7
:101BD000D4F8E430D9070BD545211D4806F042FA68
:101BE000184AD2F8E43043F0FF03C2F8E43010BDE5
:101BF000D4F8E4309A0702D545211648EEE7D4F828
:101C0000E4305B0702D545211348E7E7D4F8E43018
:101C1000180702D545211148E0E7D4F8E430D90689
:101C200002D545210E48D9E7D4F8E4309A0602D50A
:101C300045210C48D2E7D4F8E4301B06D0D5452125
:101C40000948CBE700ED00E0719301008F9301009C
:101C5000A4930100BF930100E293010002940100EC
:101C6000249401003E9401005D94010038B5214C9C
:101C70004521214806F0F6F9A36A9D0103D54521C7
:101C80001E4806F0EFF9A36ADC0103D545211C4884
:101C900006F0E8F9174DAC6A14F4801404D045211D
:101CA000184806F0DFF90224AB6A180303D5452172
:101CB000154806F0D7F90F4DAB6A590303D54521F6
:101CC000124806F0CFF9AB6A9A0303D545211048B4
:101CD00006F0C8F9074DAB6ADB0303D545210D4873
:101CE00006F0C0F9AB6A20466FEA03436FEA13437C
:101CF000AB6238BD00ED00E07594010092940100E4
:101D0000AA940100C9940100F89401001B950100F8
:101D1000459501006495010070B5234C06460D46BB
:101D20002248452106F09EF9A36AD90403D545212E
:101D30001F4806F097F9A36A1A0503D545211D48E7
:101D400006F090F9184CA36A9B0510D51A48452156
:101D500006F088F9A26BA36A180408D54521174834
:101D600006F080F91EB1A36A23F40043A3620E4C6F
:101D7000A36A590503D54521114806F073F9A36AF2
:101D8000DA050BD545210F4806F06CF90020064A0C
:101D9000936A43F47F439362287070BDA36A9B04E7
:101DA000F4D545210848EFE700ED00E094950100E7
:101DB000AF950100C5950100DD950100FB9501007F
:101DC00015960100359601005296010070B52E4C13
:101DD00006460D462D48452106F044F9A36ADB0668
:101DE00003D545212A4806F03DF9A36A1C0703D50F
:101DF0004521284806F036F9234CA36A980710D5E8
:101E00004521254806F02EF9626BA36A190608D50C
:101E10004521224806F026F91EB1A36A23F080036B
:101E2000A362194CA36ADB0703D545211C4806F0C1
:101E300019F9A36A9E0603D545211A4806F012F93E
:101E4000114B9A6AD40602D49A6A90070DD59B6A00
:101E5000D9060AD51449154840F24F1206F0EEF89B
:101E600040F24F11104806F0E2F80020064B9A6A43
:101E7000920642BF5A6A22F400525A629A6A42F0AB
:101E8000FF029A62287070BD00ED00E086960100A6
:101E9000A1960100C5950100D9960100F6960100B2
:101EA000119701005296010035970100F08E010054
:101EB0002DE9F041784B0D465C6800268AB0C4F3EA
:101EC000080786F31188BFF36F8F02F07F43B3F1E9
:101ED0007F4F1ED112F0010339D012F0400302F0FF
:101EE000080840F0D180520754BF05461E462A68B4
:101EF0006A4B58BF01261344012B98BF2A6C452119
:101F0000674806F0AFF8B8F1000F1DD0EFF38985F0
:101F10005DB940F2FB326349634806F08FF840F246
:101F2000FB31604806F083F800254FF00008FB1EE7
:101F30008DF80780092B00F29580DFE803F00A8412
:101F400088668C9393939390EFF38885E0E71E4621
:101F5000DFE7514F4521554806F084F8FC6A8DF8BB
:101F6000078014F0020404D04521514806F07AF8A5
:101F700073E0FB6A002B1DDA45214E4806F072F82B
:101F80009DF807309BB92022294602A806F02AF9BD
:101F9000099B002E73D0C3F3080222B96FEA5323C2
:101FA0006FEA43230993204602A9FFF7BBFC0AB05E
:101FB000BDE8F081FB6A5B003CD545213E4806F058
:101FC00051F8AB6933F8022C4DF602739A4206D1F0
:101FD00045212A68394806F045F82C68D0E797F87B
:101FE000283033B101200DF10701FFF7EFFE044661
:101FF000C6E797F829302BB101200DF10701FFF753
:102000008BFEF4E77B8D9BB213B1FFF72FFEEEE75B
:10201000D7F8E43013B1FFF7CBFDB1E7214940F227
:10202000CD22214806F00AF840F2CD211D4805F0E6
:10203000FEFFA5E71B4940F2D1221B4805F0FEFF39
:1020400040F2D121F2E700200DF10701CDE7002099
:102050000DF10701D3E7FFF7ABFD002490E7452121
:10206000174883E7174914F4F87F174A174808BF41
:102070000A46A7F11003452105F0F4FFEDE723F42C
:10208000FF7323F001038DE7B8F1000F7FF440AF39
:10209000054601263CE700BF00ED00E0A6ED050186
:1020A0009D97010035970100F08E0100C197010056
:1020B000DD97010003980100169801003A9801008D
:1020C0005B9801006F9701008497010084980100DC
:1020D000044B5A6942F010025A615A6942F4806214
:1020E0005A61704700ED00E0EFF30880EFF30981DB
:1020F00001B57246FFF7DCFE01BD00BF00232021C1
:102100000348C2180133412B82F80013F9D17047FC
:1021100000E100E0002080F31488BFF36F8F0020FF
:1021200080F30A8880F30B8806F00EFB00200E492E
:102130000860BFF34F8F0D4880F3088800F03EF829
:10214000202080F311880A484FF40061401880F382
:102150000988EFF314800221084380F31488BFF349
:102160006F8FFFF755FC000094ED00E0F82400208D
:1021700038260020BFF34F8F0549064BCA6802F48A
:10218000E0621343CB60BFF34F8F00BFFDE700BF9A
:1021900000ED00E00400FA05002318460649D1F8D6
:1021A0009020C2F30722934200D17047C1F89830C3
:1021B000C1F8A0000133F6E700ED00E010B572B6FB
:1021C000002484F31388FFF7E7FF23464FF0FF3026
:1021D0000B4A03F120010133102B42F82100F8D102
:1021E00000234FF0FF3003F160010133102B42F860
:1021F0002100F8D162B6BFF34F8FBFF36F8F10BDD0
:1022000000E100E0084B9B6883420BD1EFF30583AC
:1022100043B1064B5A6842F080525A605A6A22F41F
:1022200000425A6202F032BDE409002000ED00E0F5
:1022300082680D4B9A60036883F38888436883F350
:102240008988027B02F00101EFF3948323F00303FA
:10225000920748BF43F0020309B143F0010383F33F
:102260009488BFF36F8F704700ED02E0084AD3688F
:1022700048B123F400531B041B0C43F0BF6343F429
:102280000033D36070479BB243F40053F5E700BFBF
:1022900000ED00E0084AD36840B19BB243F48043AC
:1022A00043F0BF6343F40033D360704723F48043AB
:1022B0001B041B0CF4E700BF00ED00E0084AD368E4
:1022C00040B19BB243F0080343F0BF6343F40033D3
:1022D000D360704723F008031B041B0CF4E700BF16
:1022E00000ED00E0034AD2F88C3043F44063C2F8BA
:1022F0008C30704700ED00E00A4BD3F8D02020B1BD
:1023000042F00102C3F8D020704722F00102C3F866
:10231000D020D3F8D02011B142F00202F2E722F02F
:102320000202EFE700ED00E01FB5094C094A234621
:102330000121094800F02CF900230393074B0121E8
:10234000E41A01A80193029400F03EF904B010BD14
:102350000080002000000020E88B010030010020F8
:1023600010B50B680C7A23F01F0204F01F031A4308
:10237000CB68640923F01F03054943EA440343F093
:102380000103C1F89800C1F89C20C1F8A03010BD2D
:1023900000ED00E030B54B680C6885B00A894D89C6
:1023A0000094013B24F01F04234402F01F0242EA80
:1023B000451223F01F030F2804468DF808200393CD
:1023C00009D902464521064805F04CFE6FF0150478
:1023D000204605B030BD6946FFF7C2FFF8E700BFF1
:1023E000A09801002DE9F04F8946144606464FF0AB
:1023F0000008584D85B0C84527DAD6F804A0BAF1D0
:10240000000F44D0BAF11F0F18D91AF01F0F15D1C1
:10241000D6F800B01BF01F0F10D1584605F09BFEF8
:1024200007460AEB0B00013805F095FE874210D0F5
:102430006FF015073A464521474802E042464521DC
:10244000464805F00FFE6FF01504204605B0BDE8C4
:10245000F08F17F1160FEDD0BC42EBDDC5F8987088
:10246000D5F89C10C5F89870D5F8A03021F01F0160
:1024700043F01F0BD6E900321A44994202F1FF3AA9
:102480001DD1D34507D13146F8B2FFF783FF08F1DC
:1024900001080C36AFE73146C5F89870D5F89C3086
:1024A00022F01F0203F01F031A43C5F89C20E0B27C
:1024B000FFF770FF10F1160FC5D0441CE7E7013B92
:1024C000D345E0B223F01F03C5F8987008D1D5F8C2
:1024D000A020314602F01F021343C5F8A030E7E701
:1024E000D5F8A01001F01F010B43C5F8A03031460C
:1024F000FFF750FF10F1160FA5D0C5F89870D5F86A
:102500009C209DF808300BF1FF3B62F304038DF82B
:102510000830D5F8A0309DF808205B0863F3471217
:10252000D6E900310B44009323F01F0301305B44D4
:10253000A3EB0A03C0B223F01F030F288DF8082075
:10254000039303D90246452105487AE76946FFF718
:1025500007FFB2E700ED00E0F3980100CB9801001F
:10256000A09801000522044BC3F89420BFF34F8FBD
:10257000BFF36F8F704700BF00ED00E0BFF35F8FC8
:102580000022024BC3F89420704700BF00ED00E02A
:1025900010B50A4C2278FFF725FF207016300CD1B9
:1025A0000749084840F2111205F048FDBDE8104007
:1025B00040F21111024805F03ABD10BDF0140020A0
:1025C0001B990100F08E01002DE9F74F304D8A462E
:1025D00006464FF00008AB462E4FD04502DB03B055
:1025E000BDE8F08FD6F80490B9F1000F4AD03168F9
:1025F0000846019105F0AFFD0199044609EB010081
:10260000013805F0A8FD84424FF01402224B13D08C
:102610006FF0150302FB08F84BF8083040F2211266
:102620001E491F4805F00AFD40F221111B4803B066
:10263000BDE8F04F05F0FBBC14F1160F2C60EDD097
:102640001978A142EADD02FB08B0C7F89840C7F844
:102650009840D7F89C4000F10801007B64F3040027
:102660000871D7F8A0000C79400860F347140C718A
:10267000D7F89C1021F01F016960D7F8A01021F055
:102680001F01296108F1010814350C36A5E700BFC8
:102690005409002000ED00E0F01400201B99010017
:1026A000F08E010038B51D4D2C68102C0DD94FF45B
:1026B000A4721B491B4805F0C1FC19484FF4A471D2
:1026C00005F0B5FC4FF0FF3038BD0020FFF756FF96
:1026D000154B164AC3F8C020844217D1144B1C7006
:1026E000FFF740FF104BD3F89030C3F30723102BB4
:1026F0000AD00B490B484FF4D67205F09FFC4FF4FB
:10270000D671074805F093FC0020DDE7696801EB0E
:102710000011FFF725FE0130DEE700BFF48B01005A
:102720001B990100F08E010000ED00E0AAFF4400BB
:10273000F0140020014B1860704700BF28000020F3
:1027400037B540230C460A490093411A4911054602
:102750002346084A084805F06FFD011E05DA2846A1
:10276000234603B0BDE83040184703B030BD00BF7A
:1027700068090020A7820100AC87010038B5CCB2FF
:10278000012C054608D908490848792205F056FC6D
:102790007921054805F04BFC0C23296904FB03143F
:1027A000A06C00F0070038BD61990100F08E0100B7
:1027B000F8B5CCB2012C0546174606690AD9184966
:1027C000184840F24D1205F039FC40F24D11144802
:1027D00005F02DFC4FF02003EFF3118183F31288F5
:1027E000BFF36F8F0C2202FB04639B6C13F0C003DA
:1027F00001D09F4211D10123002002FB0466B36483
:1028000081F31188BFF36F8F30B90C23696803FB24
:102810000414636898470020F8BD4FF0FF30EFE7DD
:1028200061990100F08E010070B50D46064904461D
:10283000411A491140220548FFF7BAFF2B460146CD
:102840002046BDE87040184768090020AC870100A9
:1028500070B50022012104460520FFF7AFF80F48AC
:1028600000F01CFD0E4B984215D100F039FD266991
:102870000C49304605F062FB00280BDB012524697A
:102880000849B56404F1200005F058FB002801DB7D
:102890000020656570BD6FF00400FBE7DD280100D6
:1028A0000000AD0B4C8C010001460C2300224B4371
:1028B000084870B5C4184833D4E910561844226447
:1028C00005F0A7FC2DB132462B46BDE8704002480A
:1028D000184770BD68090020AC870100012808B5C1
:1028E00006D0032808D0A0B90F4B9B6C5B0719D109
:1028F000BDE80840FFF7D8BF0C4940F25E220C4803
:1029000005F09CFB40F25E21BDE80840074805F059
:102910008EBB064940F26222054805F08FFB40F26B
:102920006221F1E708BD00BF68090020619901003C
:10293000F08E010008B54FF02003EFF3118183F30F
:102940001288BFF36F8F124A136843F0020013F02E
:10295000010310600CD04FF05022D2F80C34D2F8A2
:102960000C2413F0010303D00A4805F052FC0123A4
:1029700081F31188BFF36F8F23B1BDE808400020B9
:10298000FFF792BF0120BDE8084000F0CBBC00BFBC
:10299000C0090020B00900201FB500220123CDE9A5
:1029A00002236B46084ACDF800D0CDF804D005F0DC
:1029B00073FC002805DB4FF480420023684601F0D9
:1029C0004FFA05B05DF804FBC5820100074BD3E860
:1029D000EF2F22F00201C3E8E01F0028F7D1D30750
:1029E00002D4012000F000BD704700BFC0090020E4
:1029F00008B50848084B186005F038FE38B107489C
:102A0000FFF798FE0548FDF7A9FE002008BD6FF00E
:102A10001200FBE7F4870100C4090020212A01000D
:102A20000A2838B50446074D04D1286883680D216B
:102A30005B68984728688368E1B25B6898472046DE
:102A400038BD00BFC4090020F0B54B79012B26D05A
:102A5000032B21D110268B79032B1DD1CC790CB1FE
:102A6000012C19D10A7912B1022A15D10E220B6854
:102A70004568B3F5164F2D6865D02DD8B3F5165FB0
:102A800064D016D8B3F5966F62D00AD8B3F5967FA6
:102A900061D0B3F5167F61D06FF0850052E000265B
:102AA000D9E7B3F5166F5CD0B3F5965FF4D1374B29
:102AB0003CE0B3F5E14F57D007D8B3F5615F55D08F
:102AC000B3F5964FE8D1324B30E047F61227BB42C0
:102AD000E2D14FF4000329E0B3F5613F48D013D8A9
:102AE000B3F5963F47D009D84DF6C027BB4244D036
:102AF000B3F5614FD0D14FF46B0317E0B3F5E13F6D
:102B0000CAD14FF0EB7311E0B3F5612F38D008D87C
:102B1000204FBB4237D0B3F5E12FBDD14FF0E86372
:102B200004E01D4FBB42B7D14FF0805300693443DE
:102B3000C5F824352243031DC5F86C2503C983E875
:102B400003000020F0BD4FF41D03EFE7134BEDE74A
:102B50004FF49E23EAE74FF4A033E7E74FF41C332A
:102B6000E4E74FF41D23E1E70D4BDFE70D4BDDE715
:102B70004FF06C73DAE70C4BD8E74FF46503D5E7F9
:102B80004FF07063D2E74FF08063CFE700B01300DF
:102B900000A04E0090D0030040420F0000502700DC
:102BA00000C0750000F03A0000903A01F8B5054603
:102BB0000F46066905F084FD10B92C4B1B7883B9CC
:102BC0004FF02003EFF3118483F31288BFF36F8F6C
:102BD000686805F09CFB28BB84F31188BFF36F8FF6
:102BE000EEE76424686805F092FB70B9012005F0F7
:102BF0003AFD013CF6D10021212002F011F8F0E766
:102C000084F31188BFF36F8FF5E74FF02003EFF3E4
:102C1000118483F31288BFF36F8F686805F077FB28
:102C20000028EDD0012206F8107F69680B68C3F810
:102C30004465C3F848250022C3F82021D3F82001B9
:102C4000C3F85821D3F858214A68D20641BF082258
:102C5000C3F800254FF48002C3F8042301229A60D0
:102C600084F31188BFF36F8FF8BD00BFF11400200B
:102C7000F7B50F46164640B918491948202205F005
:102C8000DDF92021154805F0D2F947B91349144858
:102C9000212205F0D3F92121104805F0C8F94FF49D
:102CA00080650024A64203D816D1002003B0F0BDF1
:102CB000331BB3F5806F38BF1D4600202A4601AB99
:102CC000391902F0A9FB20B9019BAB4201D12C4478
:102CD000E8E76FF01500E9E71620E7E7D69901006D
:102CE000F08E01004FF0E0239A69196910B511F4D4
:102CF000803F98690849094B01D1824206D21A687F
:102D00000C6822441A604FF0E02212691B680A68BE
:102D10001344181A10BD00BFD0090020D8090020A4
:102D200020220020074B83F82320074B1860074B15
:102D300018604FF0E023586198611A6942F0070269
:102D40001A61704700ED00E0D0090020D80900208A
:102D500008B5FFF7C7FF094A094913680868034423
:102D60000B6000211160074A10681360181A02F006
:102D7000E3F9BDE80840FEF70DBF00BFD809002009
:102D8000CC090020C8090020F8B53A4F59B1421CBF
:102D900009D14FF0E022136923F0010313614FF0D2
:102DA0007F433B60F8BD431C3E6856D0012856DD8A
:102DB0006FF07F43984254DA441E4FF02003EFF344
:102DC000118583F31288BFF36F8F2B4800F056FEF6
:102DD00040B92A492A488E2205F030F98E21274829
:102DE00005F025F9244800F065FEFFF77BFF4FF062
:102DF000000E4FF0E021DFF88CC08B69DCF800207A
:102E000002442148CCF80020C0F800E01F480068C8
:102E1000101A704527DA4FF4806038603C68886982
:102E2000013C4C610024834238BF9B191B1A8C6102
:102E300013441148CCF8003000F02EFE40B90F4981
:102E40000F48B92205F0FAF8B9210C4805F0EFF85F
:102E500085F31188BFF36F8FA4E70D48ACE700241A
:102E6000ABE70B4CA9E7B4F5806FB8BF4FF48064B3
:102E70003C60D3E7D0090020D4090020C38E0100B4
:102E8000F08E0100CC090020D8090020C8090020DC
:102E9000FEFFFF0038B54FF02003EFF3118583F3F9
:102EA0001288BFF36F8F154800F0E8FD40B9144950
:102EB00014488E2205F0C2F88E21114805F0B7F8AB
:102EC0000E4800F0F7FDFFF70DFF0F4B1C680F4B8E
:102ED0001B68E41A0444094800F0DEFD40B90849C3
:102EE0000848B92205F0AAF8B921054805F09FF86D
:102EF00085F31188BFF36F8F204638BDD4090020B9
:102F0000C38E0100F08E0100CC090020C80900200A
:102F1000054B1B68B3F17F4F01BF4FF0E0221369EF
:102F200043F0010313617047D0090020036810B516
:102F30005A090CBF4FF0FF32002203F01F0322FAA0
:102F400003F3DB0704460AD40E490F4840F2292256
:102F500005F074F840F229210A4805F068F8236862
:102F600003F01F025B0922600AD00649064840F2BE
:102F70002E2205F063F840F22E21024805F057F8A2
:102F8000024810BD119A0100F08E01000025845006
:102F90000348452108B505F065F80020FFF7EAF879
:102FA000449A01002DE9F0430025214C214E54F8AC
:102FB000048CDFF8849085B0A84503D8002005B0C4
:102FC000BDE8F083636A96E807001F6801AB83E8F9
:102FD00007000C221946384605F0DBF890B98FB18E
:102FE000636A21691B681A6991420BD19A69A169C8
:102FF000914207D8E169914204D962695B6932EA7A
:1030000003030AD0276A67B10C4804F08AFF4040E6
:1030100080F311884FF0040002DFE36801351C449F
:10302000CAE7484604F07DFF636A1F60F5E700BF0A
:103030003C0401007C8A01008F9A0100669A01001D
:103040005B4A08B5D2F8D03043F00203C2F8D03062
:103050004FF47F03D3F83021D3F83431BFF34F8FCF
:10306000092A01BF4FF050230022C3F81421C3F8EE
:10307000182105F0E7FA28B101224E4BC3F8382A8F
:10308000C3F878254FF47F03D3F83021D3F83431D7
:10309000BFF34F8F092A05D1012B1EBF0122454BDB
:1030A000C3F8782505F0CEFA18B10E22424BC3F8CA
:1030B000E42E4FF47F03D3F83021D3F83431BFF33B
:1030C0004F8F092A06D100223A4BC3F80C27012260
:1030D000C3F810270022D30003F57F03D3F80013B1
:1030E000BFF34F8F013108D0D3F800130132D3F86A
:1030F0000433B2F5807F0B60EDD1304BDA69BFF35A
:103100004F8FD10743D52E4BD3F80024012AFBD192
:10311000C3F80425D3F80024012AFBD1274BDA6930
:10312000BFF34F8FD2070AD5DA6922F00102DA61C4
:10313000BFF34F8F224AD2F80034012BFBD11F4A34
:10314000136ABFF34F8F01330CD1136A23F0FF03CF
:1031500043F020031362BFF34F8F194AD2F80034B3
:10316000012BFBD10022164BC3F80425D3F8002411
:10317000012AFBD1BFF34F8F0D49124BCA6802F4ED
:10318000E0621343CB60BFF34F8F00BFFDE71B6AC4
:10319000BFF34F8F0133B6D0054AD2F88C3043F4D9
:1031A0004063C2F88C30084B084A1A6008BD00BF63
:1031B00000ED00E00040005000A003500080FF0040
:1031C000009003500400FA05540000200090D00342
:1031D000F7B5044668B1012830D02D492D48D822D2
:1031E00004F02CFFD8212A4803B0BDE8F04004F0D9
:1031F0001EBF4FF050230222C3F80823C3F8040176
:10320000D3F804210122DA6001239C4218BF002573
:1032100042F210774FF050268DF8073008BF0DF1BD
:103220000705B4B1012C2AD01B491A484FF44F723C
:1032300004F004FF4FF44F711748D5E74FF05023C7
:103240000022C3F80803C3F80021D3F80021586016
:10325000DAE725B1D6F8183403F003032B70D6F85B
:103260001834DB0309D51DB19DF80730012B04D1BB
:10327000012005F0F8F9013FD3D103B0F0BD25B12D
:10328000D6F80C3403F001032B70D6F80C34E8E7C1
:10329000C29A0100F08E0100FF9A010010B50446A9
:1032A00050B90A490A4840F2151204F0C7FE40F22C
:1032B0001511064804F0BBFE064B1A7922B901220B
:1032C00005481C601A7110BD0448FCE7C29A010051
:1032D000F08E0100DC0900200000AD0B0C00AD0BEE
:1032E00008B50D4B1B7953B90C490D484FF4977233
:1032F00004F0A4FE4FF49771084804F098FE0520EE
:10330000FEF74EFB10B90520FEF73AFB4FF05023B5
:103310000122C3F8182508BDDC090020C29A01006B
:10332000F08E01002D4B10B51B79044653B92C4982
:103330002C484FF4B47204F081FE4FF4B471284865
:1033400004F075FE74B1012C3DD0254925484FF499
:10335000D37204F073FEBDE810404FF4D3712048DF
:1033600004F065BE4FF05022D2F81834D2F8181489
:10337000C90313D4D2F81434DB0719D401234FF056
:103380005022C2F818350023C2F80431D2F80431B3
:103390000223C2F804330123936010BD03F003033A
:1033A000022BECD0012BEAD00020FFF711FFE5E75C
:1033B000D2F81C3403F00303013B012BF4D80223A1
:1033C000C2F80433E9E74FF050230022C3F800218C
:1033D000D3F80021C3F804431C60DEE7DC090020B9
:1033E000C29A0100F08E01000A4B10B51B79044609
:1033F00053B90949094840F2AD1204F01FFE40F2EA
:10340000AD11054804F013FE2046BDE81040FFF75B
:10341000DFBE00BFDC090020C29A0100F08E01006F
:103420004FF05023D3F8002110B552B10020C3F85B
:103430000001D3F800210122C3F80823114B1B68B7
:1034400098474FF05023D3F804218AB10022C3F8E3
:103450000421D3F80421D3F81824D3F8181402F067
:103460000302012A4FF0020103D1C3F818159A6034
:1034700010BDC3F80813034B0120BDE810401B68C2
:10348000184700BFDC0900200E4B70B553F82040F0
:10349000013053F82060A64200D870BDD4E9003551
:1034A0002846984765B1EB6830B10028B8BF404264
:1034B000FF28A8BFFF2018705A7842F001025A7006
:1034C0000834E8E7DC8C0100F7B504460E464FF0FF
:1034D0002003EFF3118783F31288BFF36F8F01F09E
:1034E000CFFB0022042C98BF1D4B054694BF53F818
:1034F00024301C4B0092452122461B4804F0B2FDAB
:103500003EB1F369C3F308031BB14521174804F02A
:10351000A9FD35B1284605F0D9F8034608B102786F
:1035200002B9134B2A464521124804F09BFD31464F
:103530002046FFF72DFD042C08D10F490F488F229C
:1035400004F07CFD8F210C4804F071FD87F3118895
:10355000BFF36F8F284603B0BDE8F040FEF752BEC0
:10356000F48C0100339B0100499B0100769B010014
:10357000419B01009C9B0100B99B0100F08E010062
:10358000012208B5094B02201A70FFF77DFF01F0F8
:10359000AFFE0320FFF778FF00F0F4F904F0B8FC69
:1035A000034A137B23F00103137308BDF1140020B9
:1035B000B001002008B50348034A0021121A05F0A3
:1035C0005FF808BD30010020F41400200023012220
:1035D00070B586B0CDE904230F220193CDE9023204
:1035E00018234FF4A0720E4D0E4E03FB00550E49EA
:1035F00006EBC016044602FB00110C4B304600954A
:1036000000F06CF9737B0A482C75013423F0040335
:1036100000EBC4247373EE606C6006B070BD00BF35
:10362000E409002030010020F8240020C53A010000
:103630003826002080B5334BA6B003F5006282F334
:10364000088883F30A880024E0232F4D2F4E85F845
:103650002230EC772C766C76AC7685F82040EC76D0
:103660006B6A2B4F43F4E0236B626B6A43F40023D5
:103670006B62AC63EB689BB243F0BF6343F4083307
:10368000EB60FEF725FDFEF739F94FF0FF33AB6233
:10369000EB62FFF707F8FEF747FE40F20113ADF8C3
:1036A000243006ABB360CDE91F44229404F0DDFF63
:1036B0002046FFF7E9FE0120164DFFF7E5FE01F079
:1036C00095F9154BF5610593012314494FF4805288
:1036D000CDE9034328463B46CDE90144009400F080
:1036E000FDF806466A7B284622F004026A7300F061
:1036F0007FFE2046FFF76AFF3A4631462846FEF72E
:1037000015FA00BF3826002000ED00E0E409002093
:1037100081350100B0010020259C0100F814002033
:10372000F8B5144C144D154EAC4208D93146144826
:103730003D2204F083FC3D21304604F078FCAC428D
:1037400001D30020F8BDD4E9041242EA010313F0CA
:1037500003030BD1E068A361834201D12034E3E786
:10376000A76901331760A2610A44F5E76FF01500FD
:10377000E8E700BFE0000020E00000202D9C0100F1
:10378000F08E01002DE9F74304460D4690461F4692
:1037900000F108064FF02003EFF3118983F312883C
:1037A000BFF36F8F304600F069F940B91F492048D8
:1037B0008E2204F043FC8E211C4804F038FC304675
:1037C00000F078F9A369C3B12B601B68A361E369BA
:1037D0000133E3610024304600F05EF940B913493B
:1037E0001348B92204F02AFCB921104804F01FFC48
:1037F00089F31188BFF36F8F13E058EA070203D1F2
:103800006FF00B042B60E6E7224649463046CDE9CF
:10381000008700F051FF044618B9064B9B685B69AE
:103820002B60204603B0BDE8F08300BFC38E0100CB
:10383000F08E0100E40900202DE9F04104460D4618
:1038400000F108064FF02003EFF3118783F312888D
:10385000BFF36F8F304600F011F940B91D491E4883
:103860008E2204F0EBFB8E211A4804F0E0FB304678
:1038700000F020F9D4F81880B8F1000F0FD12046DD
:1038800001F076F858B12A68C0F87880426100F0FB
:10389000AFFD39463046BDE8F04100F0B3BB2B68C0
:1038A000A26930461A602B68A361E369013BE361BA
:1038B00000F0F2F840B907490748B92204F0BEFB0E
:1038C000B921044804F0B3FB87F31188BFF36F8F6D
:1038D000BDE8F081C38E0100F08E01002DE9F043B8
:1038E00085B0DDF83C900446B9F10F0F0F46154640
:1038F00098462ED11F4B98452FD104F15803C4E9A7
:103900001633109B00262373042363730E9BE81D5C
:1039100002930D9B20F0070001930C9B3D18C4E916
:10392000197000932A46434639462046C4E9066684
:10393000A66084F80E90E673E666FEF7DBF80E4BA1
:1039400066659B6803B11B6F2846236705B0BDE819
:10395000F08309F110031E2BCFD940F2FF12074963
:10396000074804F06BFB40F2FF11044804F05FFBD2
:10397000C3E700BFC53A0100E4090020529C0100E2
:10398000F08E01002DE9F043374C384D384F87B0A9
:10399000AC4226460AD93946364840F2D52204F0D0
:1039A0004DFB40F2D521384604F041FBAE4204F114
:1039B00030041BD300F05CFB2B4C2D4EDFF8B480A1
:1039C000DFF8B490AC420AD9314640464FF43D721C
:1039D00004F034FB4FF43D71304604F028FBAC4258
:1039E00020D307B0BDE8F04300F066BF54F8043CB4
:1039F00054E90C01059354F8103C049354F8143C1A
:103A0000039354F8183C029354F81C3C019354F867
:103A1000203C009354E90A23FFF760FF54F8303C40
:103A20005E65B5E7636A5A1C0FD04FF4004240F25E
:103A3000E730002123EAE373C3FB020151EAC333F9
:103A4000276804D1384600F009FD3034BAE74FF456
:103A50007A720023FCF7F2FC02460B4607F11800CD
:103A6000494601F00BFAF0E7E0000020E0000020FA
:103A7000529C0100F08E0100E1440100006838B161
:103A8000044B00F003001B7DC01A18BF01207047D3
:103A900001207047E4090020054903468A68087D33
:103AA000196802430020914204BF1860012070474A
:103AB000E4090020024A117D93680B4303607047BC
:103AC000E4090020124C08B5A36893F90E30002BCE
:103AD00008DA10491048272204F0B0FA27210D48CF
:103AE00004F0A5FA0D4D4FF02002EFF3118382F39D
:103AF0001288BFF36F8F01F0ABFA2B78A06113B976
:103B0000FDF702FFEFE7FDF7E3FA0028EBD1F7E757
:103B1000E4090020759C0100F08E0100F1140020E2
:103B20002DE9F341044617461E46EFF3058343B1E2
:103B30005F496048652204F081FA65215C4804F021
:103B400076FA4FF02003EFF3118883F31288BFF366
:103B50006F8F5948FFF792FF40B9584955488E2258
:103B600004F06CFA8E21554804F061FA5248FFF7D0
:103B7000A1FFE368524AD3B1A0689168884233D06C
:103B800057EA060332D14C48FFF786FF40B94B494C
:103B90004848B92204F052FAB921484804F047FADB
:103BA00088F31188BFF36F8F6FF00F0019E09168F1
:103BB00091F90E100133E36093683F482161A360DF
:103BC000FFF76AFF40B93D493A48B92204F036FA96
:103BD000B9213A4804F02BFA88F31188BFF36F8FAC
:103BE000002002B0BDE8F0812169E3E791F90E10F1
:103BF00090F90E306FF07E029942A8BF19469142AB
:103C0000B8BF11468B423EDD04F069FD05462246F1
:103C10004146CDE90076284800F04EFD0028E0D06E
:103C20004FF02003EFF3118683F31288BFF36F8FF9
:103C30002148FFF723FF40B920491E488E2204F097
:103C4000FDF98E211D4804F0F2F91B48FFF732FF01
:103C5000236821699C420AD04BB193F90E309942F6
:103C6000A8BF19466FF07E039942B8BF1946A068F5
:103C700004F035FD00B945B131460F4800F0C2F9F6
:103C80006FF00A00ADE70025C1E70B48FFF704FF1E
:103C900040B90A490748B92204F0D0F9B9210748C8
:103CA00004F0C5F986F31188BFF36F8FE8E700BF12
:103CB000969C0100F08E01000C0A0020C38E0100CA
:103CC000E409002038B50446EFF3058343B14349C6
:103CD0004348C72204F0B2F9C721404804F0A7F9CD
:103CE000A368002B74D03F4DAA68934273D1E36858
:103CF00043B93A493A48DF2204F0A0F9DF213748B6
:103D000004F095F9EFF3058343B137493448FD22B8
:103D100004F094F9FD21344804F089F9AB68DB7BA9
:103D2000012B08D130492E48FE2204F087F9FE21EC
:103D30002D4804F07CF9AA68D37B013BD373E36878
:103D4000012B05D9013BE36000F0B6FD002038BD32
:103D50004FF02003EFF3118583F31288BFF36F8FC9
:103D60002248FFF78BFE40B921491D488E2204F0FE
:103D700065F98E211E4804F05AF91C48FFF79AFE97
:103D80002169A06804F0ABFC204600F0F1FDA060C2
:103D900058B190F90E2022610022826700F028FBC2
:103DA0002946124800F02EF9CEE7E0600F48FFF7F1
:103DB00073FE40B90E490A48B92204F03FF9B9210F
:103DC0000B4804F034F985F31188BFF36F8FBBE71C
:103DD0006FF01500BBE74FF0FF30B8E7969C01008D
:103DE000F08E0100E4090020B89C01000C0A0020BC
:103DF000C38E010038B504464FF02003EFF3118560
:103E000083F31288BFF36F8F1248FFF737FE40B974
:103E1000114912488E2204F011F98E210E4804F047
:103E200006F90C48FFF746FE204600F0A1FD48B118
:103E30000022826700F0DCFA2946BDE838400548D8
:103E400000F0E0B8D4E902329A4218BF0133A3600F
:103E5000F2E700BF100A0020C38E0100F08E0100BF
:103E6000F7B5044616461D46EFF305835BB152EAEB
:103E7000050308D02B492C48792204F0DFF879217A
:103E8000284804F0D4F84FF02003EFF3118783F3B0
:103E90001288BFF36F8F2548FFF7F0FD40B9244922
:103EA00021488E2204F0CAF88E21214804F0BFF880
:103EB0001E48FFF7FFFDA368ABB1013B1B48A360A1
:103EC000FFF7EAFD40B91A491748B92204F0B6F8DD
:103ED000B921174804F0ABF887F31188BFF36F8F4F
:103EE000002003B0F0BD56EA050313D10F48FFF7D9
:103EF000D3FD40B90E490C48B92204F09FF8B9210E
:103F00000B4804F094F887F31188BFF36F8F6FF0BC
:103F10000F00E6E722463946CDE90065034800F088
:103F2000CBFBDEE7E39C0100F08E0100100A0020CD
:103F3000C38E010038B5074D2C6854B1FEF7AAFFB7
:103F4000054B04441C6128680021BDE8384001F09D
:103F5000B5B838BD200A0020E4090020F8B50446B1
:103F60000D464FF02003EFF3118783F31288BFF360
:103F70006F8F1E48FFF782FD40B91D491D488E22F4
:103F800004F05CF88E211A4804F051F81748FFF746
:103F900091FD00214FF4004C40F2E730164E002313
:103FA00031614FF47A72E4FB0C01FCF747FA002C04
:103FB000124B17DC1860124BB0681D60FFF7BAFF98
:103FC0000A48FFF769FD40B909490A48B92204F0D7
:103FD00035F8B921064804F02AF887F31188BFF3B1
:103FE0006F8FF8BD0228B8BF0220E3E7180A00204F
:103FF000C38E0100F08E0100E4090020200A002099
:104000001C0A002010B503460C46C1B9EFF3058227
:10401000AAB9144AD1699268914210D0FFF73CFDC9
:1040200040B911491148D02204F008F8D0210E48B7
:1040300003F0FDFFBDE810400020FDF705BD184668
:10404000FFF72AFD40B908490848B92203F0F6FFF6
:10405000B921054803F0EBFF84F31188BFF36F8F9C
:1040600010BD00BFE4090020C38E0100F08E0100E6
:1040700038B54FF02003EFF3118583F31288BFF3B7
:104080006F8F2048FFF7FAFC40B91F491F488E2266
:1040900003F0D4FF8E211C4803F0C9FF1948FFF735
:1040A00009FDEFF3058343B119491848FD2203F0D8
:1040B000C5FFFD21164803F0BAFF164CA368DB7B51
:1040C000012B08D112491148FE2203F0B7FFFE214F
:1040D0000F4803F0ACFFA268D37B013BD3730948C0
:1040E000FFF7DAFC40B908490848B92203F0A6FFF7
:1040F000B921054803F09BFF85F31188BFF36F8F4B
:1041000038BD00BF180A0020C38E0100F08E0100E8
:10411000B89C0100E40900200B4B10B599420C46F5
:104120000AD10A490A4840F23D4203F087FF40F2B3
:104130003D41064803F07BFFD4E9003213605A602A
:104140000023C4E9003310BD30010020039D0100AD
:10415000F08E0100836810B5044653B90A490B4834
:1041600040F2B92203F06AFF40F2B921064803F099
:104170005EFF2146A068FFF7CFFF637B23F00203B9
:1041800063730023A36010BD039D0100F08E010046
:1041900038B50246124804F0C7FA124D044600B979
:1041A000EC68AAB9AB6843B90F491048892203F0FB
:1041B00045FF89210C4803F03AFFAB685A7BD206D1
:1041C00006D1A26922B9DA897F2A01D9EB6138BD0B
:1041D000AB68A34202D02046FFF7ACFEEC61F6E7E5
:1041E000040A0020E4090020039D0100F08E010074
:1041F00070B590F90D200446002A437B06DA03F0DF
:104200007F03014643731D48FFF786FF637B63F01E
:104210007F0363731A4B9C4208D11A491A48BA2289
:1042200003F00CFFBA21174803F001FF174A02F10F
:104230002005D2E90830AB421BD0D3B194F90E600F
:1042400093F90E108E420FD0891B00290CDD59689E
:10425000C4E900310C605C609068031B584258410F
:10426000BDE87040FFF794BF834202D01B68002B6B
:10427000E6D1C4E9005004605462EDE7040A00206E
:1042800030010020039D0100F08E0100E4090020B0
:1042900070B505464FF02003EFF3118683F31288C3
:1042A000BFF36F8F2548FFF7E9FB40B92449254844
:1042B0008E2203F0C3FE8E21214803F0B8FE1F4872
:1042C000FFF7F8FB204B214A9C6811688C4214D1FF
:1042D0002046FFF72FFE1948FFF7DEFB40B91849CB
:1042E0001848B92203F0AAFEB921154803F09FFE31
:1042F00086F31188BFF36F8F70BD00211160144ADF
:104300001268C2B1E2897F2A15D8627BD20612D127
:10431000104A94F90E10126891420CDB0E4A944236
:1043200009D01A69AA4203DC2046FFF761FFCFE7F4
:10433000521B1A61CFE70022FBE700BF180A0020DA
:10434000C38E0100F08E0100E4090020140A002051
:10435000200A00201C0A00203001002070B590F9CE
:104360000D200446002A437B38DBDA0636D1826909
:10437000002A33D163F07F034373194B984208D16D
:1043800018491948BA2203F059FEBA21154803F01A
:104390004EFE164A02F12005D2E90830AB4218D091
:1043A000BBB194F90E6093F90E108E420CD0891BAC
:1043B000002909DD5A68C4E9003214605C600020FD
:1043C000BDE87040FFF7E4BE984202D01B68002BA6
:1043D000E9D1C4E9005004605462F0E770BD00BF49
:1043E00030010020039D0100F08E0100E40900204F
:1043F00038B504464FF02003EFF3118583F312889C
:10440000BFF36F8F1248FFF739FB40B911491248CB
:104410008E2203F013FE8E210E4803F008FE0C4896
:10442000FFF748FB2046FFF799FF0948FFF734FBE9
:1044300040B908490848B92203F000FEB9210548EF
:1044400003F0F5FD85F31188BFF36F8F38BD00BF12
:10445000180A0020C38E0100F08E010038B5044612
:104460004FF02003EFF3118583F31288BFF36F8FB2
:104470001848FFF703FB40B9174918488E2203F08C
:10448000DDFD8E21144803F0D2FD1248FFF712FB28
:10449000637B5A0711D40F48FFF7FEFA40B90E4963
:1044A0000E48B92203F0CAFDB9210B4803F0BFFD45
:1044B00085F31188BFF36F8F38BD23F004032046C6
:1044C0006373FFF74BFF2946BDE838400148FFF70B
:1044D00099BD00BF180A0020C38E0100F08E0100B4
:1044E00070B504464FF02003EFF3118683F3128872
:1044F000BFF36F8F1B48FFF7C1FA40B91A491B4839
:104500008E2203F09BFD8E21174803F090FD154885
:10451000FFF7D0FA14F80B3C13F0280F10D154F821
:10452000103CA4F1180513B12846FFF713FE14F848
:104530000B3C284623F0140304F80B3CFFF70EFF56
:104540000848FFF7A9FA40B907490848B92203F01B
:1045500075FDB921044803F06AFD86F31188BFF3A5
:104560006F8F70BD180A0020C38E0100F08E01000D
:1045700010B590F90D200446002A437B06DA03F0BB
:104580007F03014643730648FFF7C6FD054B986855
:10459000031B58425841BDE81040FFF7F9BD00BF6A
:1045A000040A0020E409002038B504460D46FFF750
:1045B000DFFF637B43F002036373F5B1154BA56026
:1045C0009C4208D114491548BA2203F037FDBA219C
:1045D000114803F02CFD2B689D4215D0A3B194F92E
:1045E0000E1093F90E20914208D0521A002A05DDD0
:1045F0005A68C4E9003214605C6038BD6A6893424E
:1046000002D01B68002BECD16B68C4E900531C601E
:104610006C60F2E730010020039D0100F08E010084
:104620002DE9F0410446884616461D464FF020030A
:10463000EFF3118783F31288BFF36F8F1A48FFF7E8
:104640001DFA40B919491A488E2203F0F7FC8E2151
:10465000164803F0ECFC1448FFF72CFA20464146BC
:10466000FFF7A2FF1048FFF717FA40B90F491048AB
:10467000B92203F0E3FCB9210C4803F0D8FC87F31E
:104680001188BFF36F8FB5F1FF3F08BFB6F1FF3F51
:1046900008D032462B4604F118000649BDE8F04127
:1046A00000F0ECBBBDE8F081180A0020C38E0100C9
:1046B000F08E0100E144010038B505460D4B0C4673
:1046C00098680D4B11461860DDE90423FFF7A8FF39
:1046D0002846FFF7E1F940B908490948D02203F01C
:1046E000ADFCD021054803F0A2FC2046BDE83840CF
:1046F000FDF7AAB9E4090020140A0020C38E0100C6
:10470000F08E0100F8B504460D464FF02003EFF39C
:10471000118683F31288BFF36F8F3448FFF7AEF929
:1047200040B9334933488E2203F088FC8E2130484B
:1047300003F07DFC2D48FFF7BDF9637B6DB2DA060F
:1047400051D1A269002A4ED103F07F036373214641
:104750002948FFF7E1FC637BA57363F07F03637374
:10476000264B9C4208D126492248BA2203F066FC17
:10477000BA21234803F05BFC224A02F12005D2E96A
:104780000830AB422AD04BB394F90E7093F90E1057
:104790008F421ED0C91B00291BDD5A68C4E90032B4
:1047A00014605C600120FFF7F3FC01240F48FFF761
:1047B00073F940B90E490F48B92203F03FFCB92103
:1047C0000B4803F034FC86F31188BFF36F8F20464B
:1047D000F8BD834202D01B68002BD7D1C4E900503A
:1047E00004605462DEE7A5730024DFE7180A0020A6
:1047F000C38E0100F08E0100040A00203001002069
:10480000039D0100E409002070B50446183000F053
:10481000E3FB4FF02003EFF3118683F31288BFF31D
:104820006F8F2048FFF72AF940B91F491F488E2291
:1048300003F004FC8E211C4803F0F9FB1948FFF734
:1048400039F994F90D20637B002A06DA03F07F031F
:10485000214617486373FFF75FFC164D637BA8681A
:1048600043F010036373031B58425841FFF790FC59
:104870000C48FFF711F940B90B490C48B92203F075
:10488000DDFBB921084803F0D2FB86F31188BFF3A2
:104890006F8FAB68A34203D1BDE8704003F03ABF0D
:1048A00070BD00BF180A0020C38E0100F08E010009
:1048B000040A0020E409002038B54FF02003EFF38C
:1048C000118583F31288BFF36F8F2448FFF7D6F862
:1048D00040B9234923488E2203F0B0FB8E212048A3
:1048E00003F0A5FB204C1D48FFF7E4F8A368DB7B31
:1048F00053B91E491B4840F2BB3203F09FFB40F204
:10490000BB311A4803F093FBEFF3058353B117490A
:1049100014484FF46F7203F091FB4FF46F7113481A
:1049200003F085FBA2680020D37B0133D373FFF72C
:104930002FFC0A48FFF7B0F840B909490948B922E5
:1049400003F07CFBB921064803F071FB85F3118865
:10495000BFF36F8FBDE8384003F0DCBE180A0020BB
:10496000C38E0100F08E0100E4090020039D0100C8
:1049700038B504464FF02003EFF3118583F3128816
:10498000BFF36F8F1648FFF779F840B915491648FD
:104990008E2203F053FB8E21124803F048FB10488F
:1049A000FFF788F8204603F0BFFE044628B1FFF762
:1049B000D1FB04F1180000F00FFB0948FFF76CF879
:1049C00040B908490848B92203F038FBB921054825
:1049D00003F02DFB85F31188BFF36F8F204638BDA0
:1049E000180A0020C38E0100F08E01000021044B44
:1049F000084603F12002C3E90822FFF7AFBA00BF5F
:104A0000E4090020F8B5EFF3058353B1384939487C
:104A100040F2325203F012FB40F23251344803F0BC
:104A200006FB4FF02003EFF3118683F31288BFF3E8
:104A30006F8F3148FFF722F840B930492D488E2258
:104A400003F0FCFA8E212D4803F0F1FA2C4D2A4890
:104A5000FFF730F8A96805F120004B7B03F07F03D6
:104A60004B73FFF759FBAC68637B63F07F036373A1
:104A7000244B9C4208D11E491E48BA2203F0DEFA9C
:104A8000BA211B4803F0D3FAD5E908311E48834206
:104A900028D03BB394F90E7093F90E2097421CD0A6
:104AA000D21B002A19DD5A68C4E9003214605C6028
:104AB0000120FFF76DFB1048FEF7EEFF40B90F49EC
:104AC0000C48D02203F0BAFAD0210C4803F0AFFA18
:104AD0003046BDE8F840FCF7B7BF8B4202D01B68F8
:104AE000002BD9D1C4E900010C606C62E0E700BF83
:104AF000039D0100F08E0100180A0020C38E010002
:104B0000E409002030010020040A00202DE9F041D2
:104B100005460E46EFF3058353B13A493A4840F251
:104B20004E5203F08BFA40F24E51364803F07FFAB2
:104B300055EA060303D1FFF765FF00205FE06FF041
:104B400001044FF0FF33641B63EB0603012C73F188
:104B5000000302DA03F0EEFD44194FF02003EFF3F7
:104B6000118883F31288BFF36F8F2848FEF786FF02
:104B700040B9274924488E2203F060FA8E21244848
:104B800003F055FA234F2148FEF794FFB868224BF3
:104B90001860FFF7EDFCB8682A46334618301F4905
:104BA00000F06CF9BA681948537B43F01003537353
:104BB000FEF772FF40B916491348D02203F03EFABF
:104BC000D021134803F033FA4046FCF73DFFBB68A1
:104BD0005B7BDB060AD50B490B4840F26F5203F0B2
:104BE0002DFA40F26F51074803F021FA03F0A2FDBD
:104BF000201A63EB0303012873F100039DDBBDE87A
:104C0000F08100BF039D0100F08E0100180A002012
:104C1000C38E0100E4090020140A0020E1440100D1
:104C200038B505460C46EFF3058353B111491248D8
:104C300040F27E5203F002FA40F27E510D4803F03A
:104C4000F6F9B4F1FF3F08BFB5F1FF3F06D10B4BBA
:104C50009868FFF7D9FD4FF0FF3038BD2846214650
:104C6000FFF754FF4FF47A7380FB0303C00B40EA55
:104C70004340F2E7039D0100F08E0100E4090020AB
:104C8000014B9868704700BFE40900202DE9F0410E
:104C900004464FF02003EFF3118683F31288BFF32D
:104CA0006F8F3E48FEF7EAFE40B93D493D488E22EF
:104CB00003F0C4F98E213A4803F0B9F93748FEF7FA
:104CC000F9FE637B1A0712D53448FEF7E5FE40B9BA
:104CD00033493448B92203F0B1F9B921304803F01F
:104CE000A6F986F31188BFF36F8FBDE8F08123F03A
:104CF000200242F00801D20938D16173A36813B1D0
:104D00002046FFF727FA04F1180000F065F94FF08C
:104D1000000804F15807A56DBD4200D085BB0120F5
:104D2000FFF736FA204B9B68A342CDD1EFF3058302
:104D3000002BC9D11948FEF7AFFE40B918491948F0
:104D4000D02203F07BF9D021154803F070F93046EA
:104D5000FCF77AFE40F2AC621449124803F06EF997
:104D600040F2AC61114803F062F9ADE703F05F0374
:104D700043F0080321460E486373FFF7CDF9BDE702
:104D80002846FFF7E7F905F1180000F025F9284655
:104D9000C5F87880FFF7E2FABDE700BF180A0020E7
:104DA000C38E0100F08E0100E4090020039D010084
:104DB000040A002008B50648064A0749121A03F0FB
:104DC00061FCBDE80840054A0549064803F05ABCA5
:104DD0000000002030010020849D01000000000040
:104DE000849D010000000020034B1B680BB9FEF7F7
:104DF00051B80020704700BF240A0020104B10B5A6
:104E00001C689C4208BF0024FFF7EEFFA4B1D4E960
:104E100004321B1A62EBE070B3F1004F70F1000234
:104E20000ADA0028ACBF18460020064B1B6913B1F4
:104E30009842A8BF184610BD6FF00040F5E700BFCC
:104E400058000020E409002030B5036868B10A4A20
:104E50005268904209D043B1D3E90421D0E9044516
:104E6000121941EB0501C3E90421426813605A603D
:104E70000023C0E9003330BD58000020B3F1FF3FEC
:104E800008BFB2F1FF3F2DE9F04104460E469846B7
:104E900015461F4600F09080036843B147494848D3
:104EA000632203F0CBF86321444803F0C0F8A66006
:104EB0004FF02003EFF3118683F31288BFF36F8F57
:104EC0004048FEF7DBFD40B93F493D488E2203F0E4
:104ED000B5F88E213C4803F0AAF83A48FEF7EAFDFF
:104EE0006FF001024FF0FF30531B60EB0703002B04
:104EF0001BDB364BD3E90013521A60EB0303551B3F
:104F000063EB0707012D77F10003BCBF01250027E4
:104F1000C4E904572E4AD2E9003C934218D1C4E9AF
:104F2000002CCCF80040546026E0FFF75DFF01350F
:104F300048F100082D1848EBE070C4E90450E9E797
:104F4000091A65EB07059C45C4E90415E7D01B6801
:104F5000002BE4D0D3E90407D4E90415814275EBB2
:104F6000070EEDDA411A67EB0505C3E90415596828
:104F7000C4E900310C605C60136893420BD09C4222
:104F800009D1FFF73BFF18B1124B1B69834202D0D6
:104F90000021FDF7F9FE0B48FEF77EFD40B90A49F6
:104FA0000748B92203F04AF8B921074803F03FF84F
:104FB00086F31188BFF36F8FBDE8F081259D010056
:104FC000F08E0100280A0020C38E0100300200206C
:104FD00058000020E409002038B504464FF02003B3
:104FE000EFF3118583F31288BFF36F8F1548FEF737
:104FF00045FD40B9144915488E2203F01FF88E2153
:10500000114803F014F80F48FEF754FD2368B3B1BC
:105010002046FFF719FF00240A48FEF73DFD40B97E
:1050200009490A48B92203F009F8B921064802F0F3
:10503000FEFF85F31188BFF36F8F204638BD6FF0F8
:105040001504E9E7280A0020C38E0100F08E010054
:1050500038B54FF02003EFF3118583F31288BFF3C7
:105060006F8F1348FEF70AFD40B9124912488E228D
:1050700002F0E4FF8E210F4802F0D9FF0C48FEF742
:1050800019FDFFF7BBFE04460948FEF705FD40B9D0
:1050900008490948B92202F0D1FFB921054802F0B8
:1050A000C6FF85F31188BFF36F8F204638BD00BF60
:1050B000280A0020C38E0100F08E010070B504465E
:1050C0000D464FF02003EFF3118683F31288BFF3F0
:1050D0006F8F1648FEF7D2FC40B9154915488E224D
:1050E00002F0ACFF8E21124802F0A1FF0F48FEF73C
:1050F000E1FCFFF783FE012805DDA04203DB294622
:105100002046FDF741FE0948FEF7C6FC40B90849B4
:105110000848B92202F092FFB921054802F087FF42
:1051200086F31188BFF36F8F70BD00BF280A00207F
:10513000C38E0100F08E01002DE9F8430446FFF70D
:10514000A7F84FF02003EFF3118583F31288BFF324
:105150006F8F4248FEF792FC40B9414941488E2288
:1051600002F06CFF8E213E4802F061FF3E4F3B484B
:10517000DFF8F8803E4EFEF79DFC3C60D8F800401A
:105180003A6844454FEAE270D6E9001E0BD054B1AC
:10519000D4E9043C9A4270EB0C0923DA9B1A6CEBBD
:1051A000000CC4E9043C002452184EEB0000C6E990
:1051B00000203C60FFF722FE2146FDF7E5FD274871
:1051C000FEF76AFC40B926492648B92202F036FFAC
:1051D000B921234802F02BFF85F31188BFF36F8FAD
:1051E000BDE8F88359184EEBE370D31A3B600022F8
:1051F0000023C6E90010C4E904232046FFF724FE7B
:105200001648FEF749FC40B915491648B92202F084
:1052100015FFB921124802F00AFF85F31188BFF388
:105220006F8F2046A36898474FF02003EFF3118556
:1052300083F31288BFF36F8F0848FEF71FFC40B955
:10524000074908488E2202F0F9FE8E21044802F038
:10525000EEFE0248FEF72EFC90E700BF280A002071
:10526000C38E0100F08E0100240A002058000020A7
:105270003002002070B54FF02003EFF3118683F366
:105280001288BFF36F8F1648FEF7F8FB40B9154937
:1052900015488E2202F0D2FE8E21124802F0C7FE7F
:1052A0000F48FEF707FCFDF7F5FD104BD3E900456D
:1052B00004190B4845F10005FEF7EEFB40B909491A
:1052C0000948B92202F0BAFEB921064802F0AFFE41
:1052D00086F31188BFF36F8F2046294670BD00BF4B
:1052E000280A0020C38E0100F08E01003002002049
:1052F000024A0349034802F014BE00BF138F0100A5
:10530000499D0100569D010010B50C4C236813B156
:105310000B4B1B682BB900F087FE30B90122084BFC
:105320001A6001230020236010BD0138062801D92E
:10533000044810BD044B53F8200010BD2C0A002077
:10534000300A0020FE8FFFFF088D0100BFF34F8F52
:105350000549064BCA6802F4E0621343CB60BFF311
:105360004F8F00BFFDE700BF00ED00E00400FA052D
:1053700030B44FF0FE320025074B084C084949680D
:10538000C3F80024C3F80424C3F80824C3F80C2489
:10539000C4F8005530BC0847001084500000845009
:1053A00060000020024BD0E90012C3E900127047F0
:1053B000600000202DE9F043144C154F002818BF61
:1053C0000446236883B0BB421CD016460D462046D7
:1053D0004FF4E07104F1040900F0DAF804F58E7876
:1053E000484600F00FFD404600F034FB2B464A468D
:1053F00040460849009600F043FB00B9276003B01F
:10540000BDE8F083002003B0BDE8F083340A00203B
:10541000A5BCC95A815E010070B50E4D82B000284E
:1054200014BF8446AC461D46DCF800000A4B984287
:105430000DD100260CF58E7033460096144600F010
:105440006DFB002818BF34462C6002B070BD0348C5
:10545000FBE700BF340A0020A5BCC95AE88FFFFF54
:1054600010B5044630B16368DB0602D50023236023
:10547000636010BD024B03485B689847F3E700BFC9
:1054800060000020248D0100B0B1436893B1DB06B9
:105490000ED5012350E8002F194640E8001C9CF06F
:1054A000000FF7D1012AF5D0BFF35F8F00207047BE
:1054B00003487047034870476FF4E040704700BFEF
:1054C000E98FFFFFEA8FFFFF034668B142683AB1F8
:1054D000D20607D5BFF35F8F002210461A607047CF
:1054E00003487047034870476FF4E040704700BFBF
:1054F000EA8FFFFFE98FFFFF10B5044620B10022BD
:1055000011232260636010BD0148FFF731FFF6E709
:105510004C8D010070B5164CD0F804C00668C4F874
:1055200004C0D0F808C0C068C4F808C0E0602660B5
:105530000868104B104D18604868D5F8182158605D
:1055400088689860C8680969D8601961D3060DD564
:10555000002305F58A70C5E94533C5E96E33B047C8
:10556000236805F5DC70BDE87040184770BD00BFCA
:105570007000002080000020340A002038B131B1D2
:10558000002201440346013081421A70FAD170476B
:1055900038B131B1002201440346013088421A700B
:1055A000FAD170472DE9F04FB2F5C07FB3B001904A
:1055B00000F2418114460D464FF4D07200210DF1E6
:1055C000540A9E4802F019FE504601F0C7F9002324
:1055D0009A482946038220230546C37563BA43824D
:1055E0002246183002F0FEFD2B46802223441A7614
:1055F000934B5046099303F104330A9303F10433A8
:105600000B9309A903F104330C9301F0BDF905468E
:10561000002840F0EE8004F1190302930DAB0093D3
:1056200003930DF1100910220021484602F0E5FD18
:10563000844CDDF8088000252E4614F8087C14F808
:10564000073C9DF818B09DF819C08BEA070B8CEA4F
:10565000030C14F8067C9DF81A3014F8042C7B40D7
:105660002F466BF3070514F810EC14F80C1C6CF3C0
:105670000F2563F3174514F805CC9DF81B3014F87B
:105680000FBC83EA0C03B44663F31F659DF810302A
:105690009DF81C0083EA0E0E9DF811306EF307068C
:1056A00083EA0B039DF812E063F30F2614F80E3C17
:1056B00014F80DBC8EEA030E9DF813306EF31746F6
:1056C00083EA0B039DF814E09DF815B063F31F66A1
:1056D00014F80B3C8EEA010150408BEA030314F8E6
:1056E00003EC9DF81D2061F3070C9DF81EB09DF89A
:1056F000161060F3070763F30F2C14F8020C14F86C
:105700000A3C82EA0E028BEA0000594062F30F273E
:105710009DF817309DF81F2014F801BC14F809EC0F
:1057200060F3174782EA0B0261F3174C83EA0E031A
:10573000B8F1100F62F31F6763F31F6C4A464B46C4
:105740004FF00101504604F11004CDE9046C94BF00
:10575000A8EB0808A8F11008CDE9065701F02EF9CA
:10576000002866D1B8F1000F7FF465AF039C1022CA
:10577000204649461034039402F034FD2F4A544524
:10578000D37803F10103D3707FF44DAF80225046EC
:10579000009901F0F9F8054678BB019B1C4603F11E
:1057A000200611AB1A460121504601F007F90546C3
:1057B00018BB2046102211A9103402F013FDB44288
:1057C000EFD1504601F0DAF84FF4D0711B48FFF7E3
:1057D000DFFE00982021FFF7DBFE09A81021FFF76C
:1057E000D7FE48461021FFF7D3FE284633B0BDE868
:1057F000F08F0DAB00930DF11009504601F0BEF88B
:105800004FF4D0710D48FFF7C3FE20210098FFF739
:10581000BFFE102109A8FFF7BBFE48461021FFF785
:10582000B7FE20210198FFF7B3FE284633B0BDE84C
:10583000F08F0546E1E76FF03705F6E7040C00202E
:1058400000010203140C00202DE9F04188B0044649
:105850000D462022002168466F4602F0CEFC04F17E
:105860002006E27B0132D2B2E273002A4DD1A27B44
:105870000132D2B2A273002A47D1637B0133DBB27B
:105880006373002B41D1237B0133DBB22373002BE5
:105890003BD1E37A0133DBB2E372002B35D1A37A3B
:1058A0000133DBB2A372002B2FD1637A0133DBB259
:1058B000637253BB237A0133DBB223722BBBE379D0
:1058C0000133DBB2E37103BBA3790133DBB2A37114
:1058D000DBB963790133DBB26371B3B92379013387
:1058E000DBB223718BB9E3780133DBB2E37063B9C8
:1058F000A3780133DBB2A3703BB963780133DBB229
:10590000637013B92378013323703B46224601218B
:10591000304601F053F8804650BB103708AB9F4229
:105920009FD1009A2B68069953400093019A6B68A7
:10593000304653400193029AAB6853400293039A56
:10594000EB6853400393049A2B6953400493059AE0
:105950006B695340AA6905934A40EB690692079A1E
:10596000694653408022079301F00EF8804638B113
:1059700068462021FFF70CFE404608B0BDE8F081E4
:10598000102220460DEB020102F02CFCF0E700BFD4
:105990002DE9F8431D468369B3F5C07F52D81646FA
:1059A000C3F5C072AA424DD3C5F5C072D31AB34233
:1059B00048D30446DFF898904FF4C0720F4648462B
:1059C000002102F01AFC4946D4F89430A269D4F8B8
:1059D00098009847002838D1D4F818803DB1D4E910
:1059E00025302A4609EB0801984770BBA84407B147
:1059F000C6B9174942460846FFF7D4FD054638B1F7
:105A00004FF4C0711248FFF7C3FD2846BDE8F88384
:105A100020460F49FFF718FF05460028F0D1012363
:105A20002361EDE73946324609EB080002F0DAFB64
:105A30000749B04442460846FFF7B4FD0546002832
:105A4000DED1E5E76FF03705DFE76FF03305DCE720
:105A5000A40D002010B5A4220021044602F0CDFBC5
:105A60004FF0FF314FF6F072044B2161E26104F117
:105A70009C001B68BDE81040184700BFC400002010
:105A80002DE9F043054685B00F4616460021102249
:105A90006846994602F0B1FB1E4B05F19C08404652
:105AA0001B68984720B10446204605B0BDE8F08346
:105AB00005F12004204600F051FFC5E92576AE69C6
:105AC000F6B92023AB612B69002B21DB1E46204653
:105AD0006946802200F058FF044630B933464946F3
:105AE00028460C9AFFF754FF04460B4B40461B68B0
:105AF0009847002818BF0446204605B0BDE8F0834B
:105B00002B69002BE2DA172E02D801367608DEE781
:105B10000026DCE7C8000020CC0000202DE9F04F73
:105B2000B2F5806F8DB0169F00F2E380B7F5807FED
:105B300000F2DC80044615460E462022002104A80F
:105B4000984602F05AFB6C4B04F19C0948461B68CE
:105B500098478346002840F092802269E3699A4280
:105B600000F391806369002B40F08D80002F40F09E
:105B7000A980DFF888A16F46002D00F098806F465D
:105B800004F120080EE0102DAB4628BF4FF0100B9B
:105B9000304639465A4602F025FBB5EB0B055E440C
:105BA00000F08580E37B0133DBB2E373002B4DD142
:105BB000A37B0133DBB2A373002B47D1637B01339B
:105BC000DBB26373002B41D1237B0133DBB2237340
:105BD000002B3BD1E37A0133DBB2E372002B35D1EA
:105BE000A37A0133DBB2A372002B2FD1637A013386
:105BF000DBB2637253BB237A0133DBB223722BBB5C
:105C0000E3790133DBB2E37103BBA3790133DBB288
:105C1000A371DBB963790133DBB26371B3B9237963
:105C20000133DBB223718BB9E3780133DBB2E3706C
:105C300063B9A3780133DBB2A3703BB96378013356
:105C4000DBB2637013B92378013323703B462246DD
:105C50000121404600F0B2FE8346002893D0DAF8D6
:105C60000030484698470346202104A8002B18BF5F
:105C70009B46FFF78DFC10213846FFF789FC5846FC
:105C80000DB0BDE8F08F3A46414600232046FFF7AD
:105C90007FFEDFF868A000283FF46DAF4846DAF8D1
:105CA00000309847834600283FF465AFE7E7204679
:105CB00004A9FFF7C9FD83460028D0D12369013329
:105CC0002361CCE73A46414604A8FFF76BFC8346C4
:105CD00018B16F46DFF824A0C1E7204604A9FFF7FA
